{
  "contractName": "eventsContract",
  "abi": [
    {
      "anonymous": false,
      "inputs": [
        {
          "indexed": true,
          "name": "id",
          "type": "uint256"
        },
        {
          "indexed": true,
          "name": "date",
          "type": "uint256"
        },
        {
          "indexed": false,
          "name": "value",
          "type": "string"
        }
      ],
      "name": "myEvent",
      "type": "event"
    },
    {
      "constant": false,
      "inputs": [
        {
          "name": "value",
          "type": "string"
        }
      ],
      "name": "emitEvent",
      "outputs": [],
      "payable": false,
      "stateMutability": "nonpayable",
      "type": "function"
    }
  ],
  "bytecode": "0x608060405234801561001057600080fd5b50610151806100206000396000f3fe608060405234801561001057600080fd5b506004361061002b5760003560e01c8063982296a814610030575b600080fd5b6100a76004803603602081101561004657600080fd5b810190808035906020019064010000000081111561006357600080fd5b82018360208201111561007557600080fd5b8035906020019184600183028401116401000000008311171561009757600080fd5b90919293919293905050506100a9565b005b426000547ff4a59c7cf41a9dd90ec4194c394811681ecb62b4fbf3c60b9258615240bb70a4848460405180806020018281038252848482818152602001925080828437600081840152601f19601f820116905080830192505050935050505060405180910390a36000808154809291906001019190505550505056fea165627a7a7230582043579406abfb83fe4e5a5f2c6d857e3c6f66dd53a23c55212cd9c7fbc24066ef0029",
  "source": "pragma solidity 0.5.5;\r\n\r\ncontract eventsContract{\r\n\r\n    event myEvent(\r\n        uint indexed id,\r\n        uint indexed date,\r\n        string value\r\n    );\r\n\r\n    uint nextId;\r\n\r\n    function emitEvent(string calldata value) external {\r\n        emit myEvent(nextId, now, value);\r\n        nextId++;\r\n    }\r\n\r\n\r\n}",
  "sourcePath": "C:\\wamp64\\www\\CODE\\PROTOTYPES\\2021\\iToken\\server\\contracts\\eventsContract.sol",
  "compiler": {
    "name": "solc",
    "version": "0.5.5+commit.47a71e8f.Emscripten.clang"
  },
  "schemaVersion": "3.4.3",
  "updatedAt": "2021-11-01T01:05:15.715Z",
  "networkType": "ethereum",
  "devdoc": {
    "methods": {}
  },
  "userdoc": {
    "methods": {}
  }
}