{
  "contractName": "myContract",
  "abi": [
    {
      "constant": true,
      "inputs": [],
      "name": "getdata",
      "outputs": [
        {
          "name": "",
          "type": "uint256"
        }
      ],
      "payable": false,
      "stateMutability": "view",
      "type": "function"
    },
    {
      "constant": false,
      "inputs": [
        {
          "name": "_data",
          "type": "uint256"
        }
      ],
      "name": "setData",
      "outputs": [],
      "payable": false,
      "stateMutability": "nonpayable",
      "type": "function"
    }
  ],
  "bytecode": "0x608060405234801561001057600080fd5b5060bd8061001f6000396000f3fe6080604052348015600f57600080fd5b506004361060325760003560e01c80634fa10cfc1460375780635b4b73a9146053575b600080fd5b603d607e565b6040518082815260200191505060405180910390f35b607c60048036036020811015606757600080fd5b81019080803590602001909291905050506087565b005b60008054905090565b806000819055505056fea165627a7a723058202e3c381e4ad19c2a1d96d0fbef539da75479cf195f56110acaf24f08cea608d60029",
  "source": "pragma solidity 0.5.5;\r\ncontract myContract {\r\n\r\n    uint data;\r\n\r\n    function getdata() external view returns(uint){\r\n        return data;\r\n    }\r\n\r\n    function setData(uint _data) external{\r\n        data = _data;\r\n    } \r\n\r\n    function setDataPrivate(uint _data) private{\r\n        data = _data + 10;\r\n    }\r\n\r\n\r\n\r\n}",
  "sourcePath": "C:\\wamp64\\www\\CODE\\PROTOTYPES\\2021\\iToken\\server\\contracts\\myContract.sol",
  "compiler": {
    "name": "solc",
    "version": "0.5.5+commit.47a71e8f.Emscripten.clang"
  },
  "schemaVersion": "3.4.3",
  "updatedAt": "2021-10-31T15:23:18.256Z",
  "devdoc": {
    "methods": {}
  },
  "userdoc": {
    "methods": {}
  }
}