{
  "contractName": "sendEtherContract",
  "abi": [
    {
      "constant": true,
      "inputs": [],
      "name": "functionCalled",
      "outputs": [
        {
          "name": "",
          "type": "string"
        }
      ],
      "payable": false,
      "stateMutability": "view",
      "type": "function"
    },
    {
      "payable": true,
      "stateMutability": "payable",
      "type": "fallback"
    },
    {
      "constant": false,
      "inputs": [],
      "name": "sendEther",
      "outputs": [],
      "payable": true,
      "stateMutability": "payable",
      "type": "function"
    }
  ],
  "bytecode": "0x608060405234801561001057600080fd5b506102ce806100206000396000f3fe6080604052600436106100295760003560e01c80630e29df2214610077578063cc81afc814610081575b6040518060400160405280600881526020017f66616c6c6261636b000000000000000000000000000000000000000000000000815250600090805190602001906100749291906101fd565b50005b61007f610111565b005b34801561008d57600080fd5b5061009661015f565b6040518080602001828103825283818151815260200191508051906020019080838360005b838110156100d65780820151818401526020810190506100bb565b50505050905090810190601f1680156101035780820380516001836020036101000a031916815260200191505b509250505060405180910390f35b6040518060400160405280600981526020017f73656e64457468657200000000000000000000000000000000000000000000008152506000908051906020019061015c9291906101fd565b50565b60008054600181600116156101000203166002900480601f0160208091040260200160405190810160405280929190818152602001828054600181600116156101000203166002900480156101f55780601f106101ca576101008083540402835291602001916101f5565b820191906000526020600020905b8154815290600101906020018083116101d857829003601f168201915b505050505081565b828054600181600116156101000203166002900490600052602060002090601f016020900481019282601f1061023e57805160ff191683800117855561026c565b8280016001018555821561026c579182015b8281111561026b578251825591602001919060010190610250565b5b509050610279919061027d565b5090565b61029f91905b8082111561029b576000816000905550600101610283565b5090565b9056fea165627a7a7230582069fcff9a6f3060317c0a93f449bc22ad0eca09137ce1df7b098087bdd58eb3bd0029",
  "source": "pragma solidity 0.5.5;\r\n\r\ncontract sendEtherContract {\r\n    string public functionCalled;\r\n\r\n    function sendEther() external payable{\r\n        functionCalled = 'sendEther';\r\n    }\r\n\r\n    function () external payable{\r\n        functionCalled = 'fallback';\r\n    }\r\n    \r\n}",
  "sourcePath": "C:\\wamp64\\www\\CODE\\PROTOTYPES\\2021\\iToken\\server\\contracts\\sendEtherContract.sol",
  "compiler": {
    "name": "solc",
    "version": "0.5.5+commit.47a71e8f.Emscripten.clang"
  },
  "schemaVersion": "3.4.3",
  "updatedAt": "2021-10-31T15:23:18.259Z",
  "devdoc": {
    "methods": {}
  },
  "userdoc": {
    "methods": {}
  }
}